:04000000FEEFFFF020
:020000040001F9
:10FEE40000019AEFFFF088ECFFF0B8ECFFF07CEC37
:10FEF400FFF01200600E3901D96F000EDB6F000EA7
:10FF0400DD6F000EDF6F000EDE6F1200000E390190
:10FF1400C06F000EC16F000EC26F000EC36F000EE3
:10FF2400C46F000EC56F000EC66F000EC76F1200BF
:10FF340075ECFFF0BD84020E026E450E016EAA0E32
:10FF4400E82EFED7012EFCD7022EFAD7BD94020E5E
:10FF5400026E450E016EAA0EE82EFED7012EFCD7C6
:10FF6400022EFAD79CEFFFF0FEEFFFF0000EBE6EFC
:10FF7400000EBD6E000EBA6E000EBB6E000EBC6E9F
:10FF8400070EC66EC268C368C468FB0EC56EFB0E5E
:10FF94003A01706F60695069070E806F4069000E06
:10FFA400716F000E816F000E516F000E416F000ED5
:10FFB400616F000E5A6F000E5B6F000E6A6F000EC9
:10FFC4006B6F000E7A6F000E7B6F000E826F000E57
:10FFD400426F000E526F000E626F000E726F436923
:10FFE400536963697369070E836F4469546964696B
:0CFFF40074690F0E846F120072EFFFF0B2
:020000040020DA
:10000000FF0FFF0FFF0FFF0FFF0FFF0FFF0FFF0F80
:020000040030CA
:0A000000ECFFF7FF9FFFFFFFFFFF7B
:00000001FF
